E21282946SM0002015An20000017EMPI                                    Activit? d'ingenierie                   sfax                                    route el ain                                                            0   3042                                                                                                                                                                                                
L21282946SM000201500000110566066LAP000EDRA SERVICE                            CONSULTANT                              RUE FARHAT HACHED SAKIET EDDAYER 3011 SFAX                                                                              10000000000000000000000099200000000000000000000000000000000000000000000000000000000000000000000000000000000000000000000000000000000000000000000000496000000000000000000000000008424000
L21282946SM0002015000002101208260AP000DESSIN ASSISTANCE PAR ORD               CONSULTANT                              AV MAJIDA BOULILA IMM RIM ABDELKEFI 3027 SFAX                                                                           10000000000000000000000087939600000000000000000000000000000000000000000000000000000000000000000000000000000000000000000000000000000000000000000000439698000000000000000000000008354262
L21282946SM000201500000311183730AAP000YOUNES CHAABANE                         CONSULTANT                              APP A5 IMM INTILAKA RUE ELKHAIRIA 3000 SFAX                                                                             10000000000000000000000276500000000000000000000000000000000000000000000000000000000000000000000000000000000000000000000000000000000000000000000001382500000000000000000000000026267500
L21282946SM000201500000411106805XAM000BUSINESS TRAINING                       ASSISTANT                               AV 5 AOUT IMM PLATINUM 2E SFAX                                                                                          10000000000000000000000093000000000000000000000000000000000000000000000000000000000000000000000000000000000000000000000000000000000000000000000000465000000000000000000000000008835000
L21282946SM000201500000511199383HAM000ES COMPANY                              ETUDE                                   M1 IMM BAYA CENTRE SFAX JADIDA                                                                                          10000000000000000000000062840000000000000000000000000000000000000000000000000000000000000000000000000000000000000000000000000000000000000000000000314200000000000000000000000005969800
L21282946SM000201500000611276148FAP000ESTHETE AMINE KAMMOUN                   ARCHITECTE                              AV MAJIDA BOULILA IMM CITY CENTER 3027 SFAX                                                                             10000000000000000000000121590000000000000000000000000000000000000000000000000000000000000000000000000000000000000000000000000000000000000000000000607950000000000000000000000011551050
L21282946SM000201500000711317225EAP000BUILDING ELECTRICITY                    ETUDE                                   AV MAJIDA BOULILA PAVILLON D'OR AP 53 3002 SFAX                                                                         10000000000000000000000071440000000000000000000000000000000000000000000000000000000000000000000000000000000000000000000000000000000000000000000000357200000000000000000000000006786800
L21282946SM000201500000810816790BAP000SOUHEIL KRICHEN                         EXPERT COMPTABLE                        RTE GREMDA IMM ZOHR B21 3057 SFAX                                                                                       10000000000000000000000038000000000000000000000000000000000000000000000000000000000000000000000000000000000000000000000000000000000000000000000000190000000000000000000000000003610000
L21282946SM000201500000910635595TAP000TOUNSI HASSOUNA                         CONSULTANT                              AV BOUZAYEN KM9 SAKIET EDDAYER 3011 SFAX                                                                                10000000000000000000000073385000000000000000000000000000000000000000000000000000000000000000000000000000000000000000000000000000000000000000000000366925000000000000000000000006971575
L21282946SM000201500001010635500TAM000AFRIC SOIL                              CONTROLE                                RUE ENNASIRIA 4E ESSAFIR 3027 SFAX                                                                                      10000000000000000000000025900000000000000000000000000000000000000000000000000000000000000000000000000000000000000000000000000000000000000000000000129500000000000000000000000002460500
L21282946SM000201500001111282946SAM000MARIEM KAFFEL                           TOPOGRAPHE                              10 RUE DE LA PAIX 3002 SFAX                                                                                             10000000000000000000000006705000000000000000000000000000000000000000000000000000000000000000000000000000000000000000000000000000000000000000000000033525000000000000000000000000636975
L21282946SM000201500001211321367YAM000PIC                                     CONTROLE                                ROUTE AIN KM4 IMM RAWDHAN 3E ETAGE 3051 SFAX                                                                            10000000000000000000000018900000000000000000000000000000000000000000000000000000000000000000000000000000000000000000000000000000000000000000000000094500000000000000000000000001795500
L21282946SM000201500001311278616XAM000PTG                                     ASSISTANT                               ROUTE AIN KM4 IMM RAWDHAN 3E ETAGE 3051 SFAX                                                                            10000000000000000000000000000000000000000000000000000000000000000000000000000000000000000000000000000000000000000000000004000000032400000000000001620000000000000000000000000030780000
L21282946SM0002015000014200676487     HACHEMI AZOUZ                           LOCATAIRE                               IMM 24 AP 2 MANOUBA WISTA                                                                                               40000000000000000000000000000000000000000000000000000000000000000000000000000000000000000000000000000000000000000000000004000000005647040000000000847056000000000000000000000004799984
L21282946SM0002015000015203242893     NEJIB HAJJI                             ASSISTANT                               RUE AHMED ABDELMALEK BOUCHEMA GABES                                                                                     40000000000000000000000000000000000000000000000000000000000000000000000000000000000000000000000000000000000000000000000004000000009676470000000001451470000000000000000000000008225000
L21282946SM0002015000016201079060     MEHREZ KHEMEKHEM                        ASSISTANT                               ROUTE TENIOUR SFAX                                                                                                      40000000000000000000000000000000000000000000000000000000000000000000000000000000000000000000000000000000000000000000000004000000000917627000000000137644000000000000000000000000779983
L21282946SM0002015000017200263032     GABSI MOUNIRA                           LOCATAIRE                               20 RUE DE L'ECOLE AIN ZAGHOUN NORD                                                                                      40000000000000000000000000000000000000000000000000000000000000000000000000000000000000000000000000000000000000000000000004000000001764700000000000264700000000000000000000000001500000
T21282946SM0002015                                                                                                                                                                                                                             000000000000000000000097539960000000000000000000000000000000000000000000000000000000000000000000000000000000000000000000 000000050405837000000009197868000000000000000000000137747929
