E11282946SM0002015An10000034EMPI                                    Activit? d'ingenierie                   sfax                                    route el ain                                                            0   3042                                                                                                                                                                                                
L11282946SM00020150000012005344378    BEN SAID WISSEM                         GERANT                                  ROUTE D'EL A-N KM 6                                                                                                     2030101201431122014365000000037147824000000000000000000000037147824000000000000000000000008419989000000000000000000000000729000000000027854705                                        
L11282946SM00020150000022001302819    KRIAA LOTFI                             PROJETEUR ELECTRICIT                    11-RUE ALI BEN GHATHEM                                                                                                  2020101201431122014365000000020230806000000000000000000000020230806000000000000000000000003498181000000000000000000000000024150000000016679785                                        
L11282946SM00020150000032005295384    CHAARI MOHAMED                          PROJETEUR MECANIQUE                     ROUTE DE GREMDA KM 1.5                                                                                                  2020101201431122014365000000023971886000000000000000000000023971886000000000000000000000004402909000000000000000000000000258230000000019277677                                        
L11282946SM00020150000042008156217    ELLEUCH HAYTHEM                         CALCULATEUR MECANIQU                    RUE 15 OCTOBRE N  43-GREMDA                                                                                             2010101201431122014365000000031694248000000000000000000000031694248000000000000000000000006510447000000000000000000000000283160000000024824651                                        
L11282946SM00020150000052008155746    BEN HMIDA RADHOUANE                     RESPONSABLE FINANCIE                    ROUTE EL AIN KM 6                                                                                                       2000101201431122014365000000018751991000000000000000000000018751991000000000000000000000003206698000000000000000000000000019470000000015504713                                        
L11282946SM00020150000062008192183    BOUAZIZ MOHAMED                         PROJETEUR CHARPENTE                     ROUTE DE MENZEL CHAKER KM 4                                                                                             1000101201431122014365000000023172770000000000000000000000023172770000000000000000000000004281648000000000000000000000000221470000000018644342                                        
L11282946SM00020150000072008795615    KANOUN YOSRI                            CALCULATEUR ELECT &                     ROUTE DE L'AFRANE KM 4.5                                                                                                1000101201431122014365000000021412881000000000000000000000021412881000000000000000000000003842898000000000000000000000000533080000000017011153                                        
L11282946SM00020150000082008801170    MASMOUDI AMIR                           RESPONSABLE MARKETIN                    ROUTE DE TANIOUR KM 2.5                                                                                                 1000101201431122014365000000018092657000000000000000000000018092657000000000000000000000003095848000000000000000000000000106160000000014869379                                        
L11282946SM00020150000092008841403    ABDENNADHE MOUNA                        RESPONSABLE DEPT INF                    ROUTE DE TUNISE KM 4                                                                                                    1000101201431122014365000000007524831000000000000000000000007524831000000000000000000000001318087000000000000000000000000043330000000006163414                                        
L11282946SM00020150000102008841065    KALLEL AMINE                            COORDINATEUR DES PRO                    Rue Sakeit Sidi Youssef                                                                                                 1000101201431122014365000000005778185000000000000000000000005778185000000000000000000000001000092000000000000000000000000000000000000004778093                                        
L11282946SM00020150000112008784839    TRABELSI BRAHIM                         INGENIEUR MECANIQUE                     Route de Gab?s km 3                                                                                                     2000101201431122014365000000027308336000000000000000000000027308336000000000000000000000005353251000000000000000000000000310820000000021562785                                        
L11282946SM00020150000122008770216    KTARI WASSIM                            INGENIEUR AGRICOL                       AV CHAKER                                                                                                               1001704201431122014254000000013729113000000000000000000000013729113000000000000000000000002339049000000000000000000000000052780000000011316554                                        
L11282946SM00020150000132008180457    HENTATI MAZEN                           INGENIEUR GENIE CIV                     405 BIS AV HABIB BOURGUIBA                                                                                              1000101201431122014365000000024352770000000000000000000000024352770000000000000000000000004600248000000000000000000000000000000000000019680132                                        
L11282946SM00020150000142005377553    BOUHLEL YOUSRA                          EXPERT FINANCIER                        RTE KAIED MHAMED KM2 SFAX                                                                                               2020101201430042014119000000009179951000000000000000000000009179951000000000000000000000001870894000000000000000000000000063910000000007245147                                        
L11282946SM00020150000152007584988    BAYOUTH RABEB                           ROJETEUR SENIOR                         KAIROUAN                                                                                                                2000101201431122014365000000015174746000000000000000000000015174746000000000000000000000002439318000000000000000000000000000000000000012711708                                        
L11282946SM00020150000162008414128    KAMMOUN SADOK                           PREJETEUR JUNIOR                        R15 OCT63 N50 GREMDA SFAX                                                                                               1000101201430042014119000000002333094000000000000000000000002333094000000000000000000000000315006000000000000000000000000000000000000002018088                                        
L11282946SM00020150000172005248601    DJEMAL HOUCINE                          INGENIEUR CALCUL SEN                    CHIHIA 3041 SFAX                                                                                                        2030201201431122014359000000017101214000000000000000000000017101214000000000000000000000002779023000000000000000000000000000000000000014295641                                        
L11282946SM00020150000182008180139    DRIRA BRAHIM                            GERANT                                  RTE EL AIN KM4 SFAX                                                                                                     2000101201430112014329000000025867802000000000000000000000025867802000000000000000000000005275079000000000000000000000000178790000000020331693                                        
L11282946SM00020150000192005269239    HASSANI MOHAMED                         SUPERVISEUR HVAC                        BP 05 SKHIRA 3050 SFAX                                                                                                  2031002201431122014321000000027588656000000000000000000000027588656000000000000000000000005672737000000000000000000000000176500000000021592149                                        
L11282946SM00020150000202008750796    GAFSI BILEL                             SUPERVISEUR ELECTRIC                    RAMLA KHERKHENNAH                                                                                                       1001002201431052014111000000013407678000000000000000000000013407678000000000000000000000003012381000000000000000000000000090550000000010304747                                        
L11282946SM00020150000212008783037    SIALA FIRAS                             INGENIEUR CALCUL SEN                    RTE MENZEL CHAKER KM1.5 SFAX                                                                                            1002402201430062014126000000005579886000000000000000000000005579886000000000000000000000000958116000000000000000000000000000000000000004621770                                        
L11282946SM00020150000222008839139    GHARIANI TAREK                          ING CALCUL ELECTRICI                    AV HABIB THAMEUR AIN SFAX                                                                                               1001504201430042014015000000000608035000000000000000000000000608035000000000000000000000000072908000000000000000000000000000000000000000535127                                        
L11282946SM00020150000232008190162    AJILI OUSSAMA                           INGENIEUR GENIE CIVI                    RTE KAIED MHAMED KM4 SFAX                                                                                               2011404201424052014040000000007748536000000000000000000000007748536000000000000000000000001619720000000000000000000000000075590000000006053226                                        
L11282946SM00020150000242008777350    KHARRAT MALEK                           SUPERVISEUR ELECTRIQ                    AV BOURGUIBA RUE GHAZZA N34 AIN                                                                                         1002305201405072014042000000004079753000000000000000000000004079753000000000000000000000000739394000000000000000000000000017620000000003322739                                        
L11282946SM00020150000252005361823    HADJ SALAH ADEL                         CONDUCTEUR DE TRAVAU                    CITE EL HBIB SFAX                                                                                                       2021006201431102014141000000004862754000000000000000000000004862754000000000000000000000000672924000000000000000000000000263230000000003926600                                        
L11282946SM00020150000262008758305    MSALMI KARIM                            DIRECTEUR GRH                           RTE GABES KM8 SFAX                                                                                                      1002706201431122014184000000013767089000000000000000000000013767089000000000000000000000002622735000000000000000000000000120860000000010981104                                        
L11282946SM00020150000272004567804    BACCAR ABDELWAHE                        INGENIEUR ELECTRIQUE                    ROUHIA SELIANA                                                                                                          1001506201431122014196000000009441426000000000000000000000009441426000000000000000000000001605811000000000000000000000000000000000000007835615                                        
L11282946SM00020150000282008796346    DRIRA ISMAIL                            INGENIEUR ELECTROMEC                    RTE EL AIN KM4 SFAX                                                                                                     1000707201431122014174000000008379963000000000000000000000008379963000000000000000000000001436202000000000000000000000000000000000000006943761                                        
L11282946SM00020150000292008167910    BEN KRAIEM WALID                        PROJETEUR                               AGUREB SFAX                                                                                                             2010101201431122014365000000011992618000000000000000000000011992618000000000000000000000002100441000000000000000000000000228840000000009663337                                        
L11282946SM00020150000302008731429    KZADRI SADOK                            INGENIEUR GENIE CIVI                    RUE JAAFER EL BARMAKI MUTUELLEVI                                                                                        1001108201431122014140000000005831559000000000000000000000005831559000000000000000000000000852456000000000000000000000000016160000000004962943                                        
L11282946SM00020150000312008584138    HOSNI MOURAD                            PROJETEUR STRUCTURE                     SBIHA KASSERINE                                                                                                         1000910201431122014082000000004682540000000000000000000000004682540000000000000000000000000739633000000000000000000000000000000000000003942907                                        
L11282946SM00020150000322005394548    KRIAA MOHAMED                           PROJETEUR                               33 RUE ALI BEN GHDHEM SAKIET EZZIT SFAX                                                                                 2020811201431122014053000000003699498000000000000000000000003699498000000000000000000000000397046000000000000000000000000000000000000003302452                                        
L11282946SM00020150000332008193750    MAGHREBI ZIED                           DIRECTEUR GENERAL AD                    RTE AIN KM 6.5 SFAX                                                                                                     2020112201431122014030000000002249578000000000000000000000002249578000000000000000000000000406557000000000000000000000000052330000000001790691                                        
L11282946SM00020150000342008775326    KOUBAA RACEM                            RESPONSABLE FINANCIE                    RUE GRATI ET BOUCHAALA N18 CHIHI                                                                                        2001512201431122014016000000000814407000000000000000000000000814407000000000000000000000000110055000000000000000000000000000000000000000704352                                        
T11282946SM0002015                                                                                                                                                                                                                                                  000000467559081000000000000000000000467559081000000000000000000000087567781000000000000000000000003866030000000375253180                                        
