0033871184000022016001011123898205KRIAA                         LOTFI                         0130281900033207120000000000
0033871184000022016001021171355702CHAARI                        MOHAMED                       0529538400038938740000000000
0033871184000022016001031639297207BEN HMIDA                     RADHOUANE                     0815574600029126940000000000
0033871184000022016001041642320608BOUAZIZ                       MOHAMED                       0819218300037656700000000000
0033871184000022016001051629994904HENTATI                       MAZEN                         0818045700043583280000000000
0033871184000022016001061690042104LADHRAA                       HAMZA                         0875531400036218540000000000
0033871184000022016001071690431307GHORBEL                       AHMED                         0885520300037654860000000000
0033871184000022016001081606091609BAYOUTH                       RABEB                         0758498800029138700000000000
0033871184000022016001091690308802GHARBI                        BADR                          0884091400018261180000000000
0033871184000022016001101690310204HLIOUI                        NAIM                          0885848000019183460000000000
0033871184000022016001111177770706DJEMAL                        HOUCINE                       0524860100031754860000000000
0033871184000022016001121690198807WALI                          SLIM                          0882509300037654860000000000
0033871184000022016002011680372107GHARIANI                      TAREK                         0883913900033074980000000000
0033871184000022016002021680453907BACCAR                        ABDELWAHEB                    0456780400052920680000000000
0033871184000022016002031285421705BEN KRAIEM                    WALID                         0816791000036238740000000000
0033871184000022016002041690433808CHIBOUB                       HAMDI                         0886480200031967520000000000
0033871184000022016002051654945805KZADRI                        SADOK                         0873142900021994860000000000
0033871184000022016002061629885201HOSNI                         MOURAD                        0858413800032537080000000000
0033871184000022016002071668520503KOUBAA                        RACEM                         0877532600037529920000000000
0033871184000022016002081668538604KOUBAA                        ASSAAD                        0878811100040501660000000000
0033871184000022016002091159789906BENROMDHANE                   HABIB                         0026125600016590960000000000
0033871184000022016002101620491603WALHA                         NEJAH                         0877129100036238740000000000
0033871184000022016002111690008204CHTIOUI                       MAKKI                         0882600300036236940000000000
0033871184000022016002121685543009MNIF                          WALID                         0886789600016478700000000000
0033871184000022016003011240426005ISMAIL                        SALEM                         0815076600029124540000000000
0033871184000022016003021571583201NASR                          MONEM                         0868883500033385440000000000
